{
	"contracts/SimpleStorage.sol": {
		"SimpleStorage": {
			"abi": [
				{
					"inputs": [
						{
							"internalType": "uint256",
							"name": "_key",
							"type": "uint256"
						}
					],
					"name": "get",
					"outputs": [
						{
							"internalType": "string",
							"name": "",
							"type": "string"
						}
					],
					"stateMutability": "view",
					"type": "function"
				},
				{
					"inputs": [
						{
							"internalType": "uint256",
							"name": "key",
							"type": "uint256"
						},
						{
							"internalType": "string",
							"name": "value",
							"type": "string"
						}
					],
					"name": "set",
					"outputs": [],
					"stateMutability": "nonpayable",
					"type": "function"
				}
			],
			"devdoc": {
				"kind": "dev",
				"methods": {},
				"version": 1
			},
			"evm": {
				"assembly": "    /* \"contracts/SimpleStorage.sol\":58:465  contract SimpleStorage {... */\n  mstore(0x40, 0x80)\n  callvalue\n  dup1\n  iszero\n  tag_1\n  jumpi\n  0x00\n  dup1\n  revert\ntag_1:\n  pop\n  dataSize(sub_0)\n  dup1\n  dataOffset(sub_0)\n  0x00\n  codecopy\n  0x00\n  return\nstop\n\nsub_0: assembly {\n        /* \"contracts/SimpleStorage.sol\":58:465  contract SimpleStorage {... */\n      mstore(0x40, 0x80)\n      callvalue\n      dup1\n      iszero\n      tag_1\n      jumpi\n      0x00\n      dup1\n      revert\n    tag_1:\n      pop\n      jumpi(tag_2, lt(calldatasize, 0x04))\n      shr(0xe0, calldataload(0x00))\n      dup1\n      0x64371977\n      eq\n      tag_3\n      jumpi\n      dup1\n      0x9507d39a\n      eq\n      tag_4\n      jumpi\n    tag_2:\n      0x00\n      dup1\n      revert\n        /* \"contracts/SimpleStorage.sol\":370:463  function set(uint256 key, string memory value) public {... */\n    tag_3:\n      tag_5\n      0x04\n      dup1\n      calldatasize\n      sub\n      dup2\n      add\n      swap1\n      tag_6\n      swap2\n      swap1\n      tag_7\n      jump\t// in\n    tag_6:\n      tag_8\n      jump\t// in\n    tag_5:\n      stop\n        /* \"contracts/SimpleStorage.sol\":216:318  function get(uint256 _key) public view returns (string memory) {... */\n    tag_4:\n      tag_9\n      0x04\n      dup1\n      calldatasize\n      sub\n      dup2\n      add\n      swap1\n      tag_10\n      swap2\n      swap1\n      tag_11\n      jump\t// in\n    tag_10:\n      tag_12\n      jump\t// in\n    tag_9:\n      mload(0x40)\n      tag_13\n      swap2\n      swap1\n      tag_14\n      jump\t// in\n    tag_13:\n      mload(0x40)\n      dup1\n      swap2\n      sub\n      swap1\n      return\n        /* \"contracts/SimpleStorage.sol\":370:463  function set(uint256 key, string memory value) public {... */\n    tag_8:\n        /* \"contracts/SimpleStorage.sol\":451:456  value */\n      dup1\n        /* \"contracts/SimpleStorage.sol\":434:443  keyValues */\n      0x00\n        /* \"contracts/SimpleStorage.sol\":434:448  keyValues[key] */\n      dup1\n        /* \"contracts/SimpleStorage.sol\":444:447  key */\n      dup5\n        /* \"contracts/SimpleStorage.sol\":434:448  keyValues[key] */\n      dup2\n      mstore\n      0x20\n      add\n      swap1\n      dup2\n      mstore\n      0x20\n      add\n      0x00\n      keccak256\n        /* \"contracts/SimpleStorage.sol\":434:456  keyValues[key] = value */\n      swap1\n      dup2\n      tag_16\n      swap2\n      swap1\n      tag_17\n      jump\t// in\n    tag_16:\n      pop\n        /* \"contracts/SimpleStorage.sol\":370:463  function set(uint256 key, string memory value) public {... */\n      pop\n      pop\n      jump\t// out\n        /* \"contracts/SimpleStorage.sol\":216:318  function get(uint256 _key) public view returns (string memory) {... */\n    tag_12:\n        /* \"contracts/SimpleStorage.sol\":264:277  string memory */\n      0x60\n        /* \"contracts/SimpleStorage.sol\":296:305  keyValues */\n      0x00\n        /* \"contracts/SimpleStorage.sol\":296:311  keyValues[_key] */\n      dup1\n        /* \"contracts/SimpleStorage.sol\":306:310  _key */\n      dup4\n        /* \"contracts/SimpleStorage.sol\":296:311  keyValues[_key] */\n      dup2\n      mstore\n      0x20\n      add\n      swap1\n      dup2\n      mstore\n      0x20\n      add\n      0x00\n      keccak256\n        /* \"contracts/SimpleStorage.sol\":289:311  return keyValues[_key] */\n      dup1\n      sload\n      tag_19\n      swap1\n      tag_20\n      jump\t// in\n    tag_19:\n      dup1\n      0x1f\n      add\n      0x20\n      dup1\n      swap2\n      div\n      mul\n      0x20\n      add\n      mload(0x40)\n      swap1\n      dup2\n      add\n      0x40\n      mstore\n      dup1\n      swap3\n      swap2\n      swap1\n      dup2\n      dup2\n      mstore\n      0x20\n      add\n      dup3\n      dup1\n      sload\n      tag_21\n      swap1\n      tag_20\n      jump\t// in\n    tag_21:\n      dup1\n      iszero\n      tag_22\n      jumpi\n      dup1\n      0x1f\n      lt\n      tag_23\n      jumpi\n      0x0100\n      dup1\n      dup4\n      sload\n      div\n      mul\n      dup4\n      mstore\n      swap2\n      0x20\n      add\n      swap2\n      jump(tag_22)\n    tag_23:\n      dup3\n      add\n      swap2\n      swap1\n      0x00\n      mstore\n      keccak256(0x00, 0x20)\n      swap1\n    tag_24:\n      dup2\n      sload\n      dup2\n      mstore\n      swap1\n      0x01\n      add\n      swap1\n      0x20\n      add\n      dup1\n      dup4\n      gt\n      tag_24\n      jumpi\n      dup3\n      swap1\n      sub\n      0x1f\n      and\n      dup3\n      add\n      swap2\n    tag_22:\n      pop\n      pop\n      pop\n      pop\n      pop\n      swap1\n      pop\n        /* \"contracts/SimpleStorage.sol\":216:318  function get(uint256 _key) public view returns (string memory) {... */\n      swap2\n      swap1\n      pop\n      jump\t// out\n        /* \"#utility.yul\":7:82   */\n    tag_25:\n        /* \"#utility.yul\":40:46   */\n      0x00\n        /* \"#utility.yul\":73:75   */\n      0x40\n        /* \"#utility.yul\":67:76   */\n      mload\n        /* \"#utility.yul\":57:76   */\n      swap1\n      pop\n        /* \"#utility.yul\":7:82   */\n      swap1\n      jump\t// out\n        /* \"#utility.yul\":88:205   */\n    tag_26:\n        /* \"#utility.yul\":197:198   */\n      0x00\n        /* \"#utility.yul\":194:195   */\n      dup1\n        /* \"#utility.yul\":187:199   */\n      revert\n        /* \"#utility.yul\":211:328   */\n    tag_27:\n        /* \"#utility.yul\":320:321   */\n      0x00\n        /* \"#utility.yul\":317:318   */\n      dup1\n        /* \"#utility.yul\":310:322   */\n      revert\n        /* \"#utility.yul\":334:411   */\n    tag_28:\n        /* \"#utility.yul\":371:378   */\n      0x00\n        /* \"#utility.yul\":400:405   */\n      dup2\n        /* \"#utility.yul\":389:405   */\n      swap1\n      pop\n        /* \"#utility.yul\":334:411   */\n      swap2\n      swap1\n      pop\n      jump\t// out\n        /* \"#utility.yul\":417:539   */\n    tag_29:\n        /* \"#utility.yul\":490:514   */\n      tag_67\n        /* \"#utility.yul\":508:513   */\n      dup2\n        /* \"#utility.yul\":490:514   */\n      tag_28\n      jump\t// in\n    tag_67:\n        /* \"#utility.yul\":483:488   */\n      dup2\n        /* \"#utility.yul\":480:515   */\n      eq\n        /* \"#utility.yul\":470:533   */\n      tag_68\n      jumpi\n        /* \"#utility.yul\":529:530   */\n      0x00\n        /* \"#utility.yul\":526:527   */\n      dup1\n        /* \"#utility.yul\":519:531   */\n      revert\n        /* \"#utility.yul\":470:533   */\n    tag_68:\n        /* \"#utility.yul\":417:539   */\n      pop\n      jump\t// out\n        /* \"#utility.yul\":545:684   */\n    tag_30:\n        /* \"#utility.yul\":591:596   */\n      0x00\n        /* \"#utility.yul\":629:635   */\n      dup2\n        /* \"#utility.yul\":616:636   */\n      calldataload\n        /* \"#utility.yul\":607:636   */\n      swap1\n      pop\n        /* \"#utility.yul\":645:678   */\n      tag_70\n        /* \"#utility.yul\":672:677   */\n      dup2\n        /* \"#utility.yul\":645:678   */\n      tag_29\n      jump\t// in\n    tag_70:\n        /* \"#utility.yul\":545:684   */\n      swap3\n      swap2\n      pop\n      pop\n      jump\t// out\n        /* \"#utility.yul\":690:807   */\n    tag_31:\n        /* \"#utility.yul\":799:800   */\n      0x00\n        /* \"#utility.yul\":796:797   */\n      dup1\n        /* \"#utility.yul\":789:801   */\n      revert\n        /* \"#utility.yul\":813:930   */\n    tag_32:\n        /* \"#utility.yul\":922:923   */\n      0x00\n        /* \"#utility.yul\":919:920   */\n      dup1\n        /* \"#utility.yul\":912:924   */\n      revert\n        /* \"#utility.yul\":936:1038   */\n    tag_33:\n        /* \"#utility.yul\":977:983   */\n      0x00\n        /* \"#utility.yul\":1028:1030   */\n      0x1f\n        /* \"#utility.yul\":1024:1031   */\n      not\n        /* \"#utility.yul\":1019:1021   */\n      0x1f\n        /* \"#utility.yul\":1012:1017   */\n      dup4\n        /* \"#utility.yul\":1008:1022   */\n      add\n        /* \"#utility.yul\":1004:1032   */\n      and\n        /* \"#utility.yul\":994:1032   */\n      swap1\n      pop\n        /* \"#utility.yul\":936:1038   */\n      swap2\n      swap1\n      pop\n      jump\t// out\n        /* \"#utility.yul\":1044:1224   */\n    tag_34:\n        /* \"#utility.yul\":1092:1169   */\n      0x4e487b7100000000000000000000000000000000000000000000000000000000\n        /* \"#utility.yul\":1089:1090   */\n      0x00\n        /* \"#utility.yul\":1082:1170   */\n      mstore\n        /* \"#utility.yul\":1189:1193   */\n      0x41\n        /* \"#utility.yul\":1186:1187   */\n      0x04\n        /* \"#utility.yul\":1179:1194   */\n      mstore\n        /* \"#utility.yul\":1213:1217   */\n      0x24\n        /* \"#utility.yul\":1210:1211   */\n      0x00\n        /* \"#utility.yul\":1203:1218   */\n      revert\n        /* \"#utility.yul\":1230:1511   */\n    tag_35:\n        /* \"#utility.yul\":1313:1340   */\n      tag_76\n        /* \"#utility.yul\":1335:1339   */\n      dup3\n        /* \"#utility.yul\":1313:1340   */\n      tag_33\n      jump\t// in\n    tag_76:\n        /* \"#utility.yul\":1305:1311   */\n      dup2\n        /* \"#utility.yul\":1301:1341   */\n      add\n        /* \"#utility.yul\":1443:1449   */\n      dup2\n        /* \"#utility.yul\":1431:1441   */\n      dup2\n        /* \"#utility.yul\":1428:1450   */\n      lt\n        /* \"#utility.yul\":1407:1425   */\n      0xffffffffffffffff\n        /* \"#utility.yul\":1395:1405   */\n      dup3\n        /* \"#utility.yul\":1392:1426   */\n      gt\n        /* \"#utility.yul\":1389:1451   */\n      or\n        /* \"#utility.yul\":1386:1474   */\n      iszero\n      tag_77\n      jumpi\n        /* \"#utility.yul\":1454:1472   */\n      tag_78\n      tag_34\n      jump\t// in\n    tag_78:\n        /* \"#utility.yul\":1386:1474   */\n    tag_77:\n        /* \"#utility.yul\":1494:1504   */\n      dup1\n        /* \"#utility.yul\":1490:1492   */\n      0x40\n        /* \"#utility.yul\":1483:1505   */\n      mstore\n        /* \"#utility.yul\":1273:1511   */\n      pop\n        /* \"#utility.yul\":1230:1511   */\n      pop\n      pop\n      jump\t// out\n        /* \"#utility.yul\":1517:1646   */\n    tag_36:\n        /* \"#utility.yul\":1551:1557   */\n      0x00\n        /* \"#utility.yul\":1578:1598   */\n      tag_80\n      tag_25\n      jump\t// in\n    tag_80:\n        /* \"#utility.yul\":1568:1598   */\n      swap1\n      pop\n        /* \"#utility.yul\":1607:1640   */\n      tag_81\n        /* \"#utility.yul\":1635:1639   */\n      dup3\n        /* \"#utility.yul\":1627:1633   */\n      dup3\n        /* \"#utility.yul\":1607:1640   */\n      tag_35\n      jump\t// in\n    tag_81:\n        /* \"#utility.yul\":1517:1646   */\n      swap2\n      swap1\n      pop\n      jump\t// out\n        /* \"#utility.yul\":1652:1960   */\n    tag_37:\n        /* \"#utility.yul\":1714:1718   */\n      0x00\n        /* \"#utility.yul\":1804:1822   */\n      0xffffffffffffffff\n        /* \"#utility.yul\":1796:1802   */\n      dup3\n        /* \"#utility.yul\":1793:1823   */\n      gt\n        /* \"#utility.yul\":1790:1846   */\n      iszero\n      tag_83\n      jumpi\n        /* \"#utility.yul\":1826:1844   */\n      tag_84\n      tag_34\n      jump\t// in\n    tag_84:\n        /* \"#utility.yul\":1790:1846   */\n    tag_83:\n        /* \"#utility.yul\":1864:1893   */\n      tag_85\n        /* \"#utility.yul\":1886:1892   */\n      dup3\n        /* \"#utility.yul\":1864:1893   */\n      tag_33\n      jump\t// in\n    tag_85:\n        /* \"#utility.yul\":1856:1893   */\n      swap1\n      pop\n        /* \"#utility.yul\":1948:1952   */\n      0x20\n        /* \"#utility.yul\":1942:1946   */\n      dup2\n        /* \"#utility.yul\":1938:1953   */\n      add\n        /* \"#utility.yul\":1930:1953   */\n      swap1\n      pop\n        /* \"#utility.yul\":1652:1960   */\n      swap2\n      swap1\n      pop\n      jump\t// out\n        /* \"#utility.yul\":1966:2114   */\n    tag_38:\n        /* \"#utility.yul\":2064:2070   */\n      dup3\n        /* \"#utility.yul\":2059:2062   */\n      dup2\n        /* \"#utility.yul\":2054:2057   */\n      dup4\n        /* \"#utility.yul\":2041:2071   */\n      calldatacopy\n        /* \"#utility.yul\":2105:2106   */\n      0x00\n        /* \"#utility.yul\":2096:2102   */\n      dup4\n        /* \"#utility.yul\":2091:2094   */\n      dup4\n        /* \"#utility.yul\":2087:2103   */\n      add\n        /* \"#utility.yul\":2080:2107   */\n      mstore\n        /* \"#utility.yul\":1966:2114   */\n      pop\n      pop\n      pop\n      jump\t// out\n        /* \"#utility.yul\":2120:2545   */\n    tag_39:\n        /* \"#utility.yul\":2198:2203   */\n      0x00\n        /* \"#utility.yul\":2223:2289   */\n      tag_88\n        /* \"#utility.yul\":2239:2288   */\n      tag_89\n        /* \"#utility.yul\":2281:2287   */\n      dup5\n        /* \"#utility.yul\":2239:2288   */\n      tag_37\n      jump\t// in\n    tag_89:\n        /* \"#utility.yul\":2223:2289   */\n      tag_36\n      jump\t// in\n    tag_88:\n        /* \"#utility.yul\":2214:2289   */\n      swap1\n      pop\n        /* \"#utility.yul\":2312:2318   */\n      dup3\n        /* \"#utility.yul\":2305:2310   */\n      dup2\n        /* \"#utility.yul\":2298:2319   */\n      mstore\n        /* \"#utility.yul\":2350:2354   */\n      0x20\n        /* \"#utility.yul\":2343:2348   */\n      dup2\n        /* \"#utility.yul\":2339:2355   */\n      add\n        /* \"#utility.yul\":2388:2391   */\n      dup5\n        /* \"#utility.yul\":2379:2385   */\n      dup5\n        /* \"#utility.yul\":2374:2377   */\n      dup5\n        /* \"#utility.yul\":2370:2386   */\n      add\n        /* \"#utility.yul\":2367:2392   */\n      gt\n        /* \"#utility.yul\":2364:2476   */\n      iszero\n      tag_90\n      jumpi\n        /* \"#utility.yul\":2395:2474   */\n      tag_91\n      tag_32\n      jump\t// in\n    tag_91:\n        /* \"#utility.yul\":2364:2476   */\n    tag_90:\n        /* \"#utility.yul\":2485:2539   */\n      tag_92\n        /* \"#utility.yul\":2532:2538   */\n      dup5\n        /* \"#utility.yul\":2527:2530   */\n      dup3\n        /* \"#utility.yul\":2522:2525   */\n      dup6\n        /* \"#utility.yul\":2485:2539   */\n      tag_38\n      jump\t// in\n    tag_92:\n        /* \"#utility.yul\":2204:2545   */\n      pop\n        /* \"#utility.yul\":2120:2545   */\n      swap4\n      swap3\n      pop\n      pop\n      pop\n      jump\t// out\n        /* \"#utility.yul\":2565:2905   */\n    tag_40:\n        /* \"#utility.yul\":2621:2626   */\n      0x00\n        /* \"#utility.yul\":2670:2673   */\n      dup3\n        /* \"#utility.yul\":2663:2667   */\n      0x1f\n        /* \"#utility.yul\":2655:2661   */\n      dup4\n        /* \"#utility.yul\":2651:2668   */\n      add\n        /* \"#utility.yul\":2647:2674   */\n      slt\n        /* \"#utility.yul\":2637:2759   */\n      tag_94\n      jumpi\n        /* \"#utility.yul\":2678:2757   */\n      tag_95\n      tag_31\n      jump\t// in\n    tag_95:\n        /* \"#utility.yul\":2637:2759   */\n    tag_94:\n        /* \"#utility.yul\":2795:2801   */\n      dup2\n        /* \"#utility.yul\":2782:2802   */\n      calldataload\n        /* \"#utility.yul\":2820:2899   */\n      tag_96\n        /* \"#utility.yul\":2895:2898   */\n      dup5\n        /* \"#utility.yul\":2887:2893   */\n      dup3\n        /* \"#utility.yul\":2880:2884   */\n      0x20\n        /* \"#utility.yul\":2872:2878   */\n      dup7\n        /* \"#utility.yul\":2868:2885   */\n      add\n        /* \"#utility.yul\":2820:2899   */\n      tag_39\n      jump\t// in\n    tag_96:\n        /* \"#utility.yul\":2811:2899   */\n      swap2\n      pop\n        /* \"#utility.yul\":2627:2905   */\n      pop\n        /* \"#utility.yul\":2565:2905   */\n      swap3\n      swap2\n      pop\n      pop\n      jump\t// out\n        /* \"#utility.yul\":2911:3565   */\n    tag_7:\n        /* \"#utility.yul\":2989:2995   */\n      0x00\n        /* \"#utility.yul\":2997:3003   */\n      dup1\n        /* \"#utility.yul\":3046:3048   */\n      0x40\n        /* \"#utility.yul\":3034:3043   */\n      dup4\n        /* \"#utility.yul\":3025:3032   */\n      dup6\n        /* \"#utility.yul\":3021:3044   */\n      sub\n        /* \"#utility.yul\":3017:3049   */\n      slt\n        /* \"#utility.yul\":3014:3133   */\n      iszero\n      tag_98\n      jumpi\n        /* \"#utility.yul\":3052:3131   */\n      tag_99\n      tag_26\n      jump\t// in\n    tag_99:\n        /* \"#utility.yul\":3014:3133   */\n    tag_98:\n        /* \"#utility.yul\":3172:3173   */\n      0x00\n        /* \"#utility.yul\":3197:3250   */\n      tag_100\n        /* \"#utility.yul\":3242:3249   */\n      dup6\n        /* \"#utility.yul\":3233:3239   */\n      dup3\n        /* \"#utility.yul\":3222:3231   */\n      dup7\n        /* \"#utility.yul\":3218:3240   */\n      add\n        /* \"#utility.yul\":3197:3250   */\n      tag_30\n      jump\t// in\n    tag_100:\n        /* \"#utility.yul\":3187:3250   */\n      swap3\n      pop\n        /* \"#utility.yul\":3143:3260   */\n      pop\n        /* \"#utility.yul\":3327:3329   */\n      0x20\n        /* \"#utility.yul\":3316:3325   */\n      dup4\n        /* \"#utility.yul\":3312:3330   */\n      add\n        /* \"#utility.yul\":3299:3331   */\n      calldataload\n        /* \"#utility.yul\":3358:3376   */\n      0xffffffffffffffff\n        /* \"#utility.yul\":3350:3356   */\n      dup2\n        /* \"#utility.yul\":3347:3377   */\n      gt\n        /* \"#utility.yul\":3344:3461   */\n      iszero\n      tag_101\n      jumpi\n        /* \"#utility.yul\":3380:3459   */\n      tag_102\n      tag_27\n      jump\t// in\n    tag_102:\n        /* \"#utility.yul\":3344:3461   */\n    tag_101:\n        /* \"#utility.yul\":3485:3548   */\n      tag_103\n        /* \"#utility.yul\":3540:3547   */\n      dup6\n        /* \"#utility.yul\":3531:3537   */\n      dup3\n        /* \"#utility.yul\":3520:3529   */\n      dup7\n        /* \"#utility.yul\":3516:3538   */\n      add\n        /* \"#utility.yul\":3485:3548   */\n      tag_40\n      jump\t// in\n    tag_103:\n        /* \"#utility.yul\":3475:3548   */\n      swap2\n      pop\n        /* \"#utility.yul\":3270:3558   */\n      pop\n        /* \"#utility.yul\":2911:3565   */\n      swap3\n      pop\n      swap3\n      swap1\n      pop\n      jump\t// out\n        /* \"#utility.yul\":3571:3900   */\n    tag_11:\n        /* \"#utility.yul\":3630:3636   */\n      0x00\n        /* \"#utility.yul\":3679:3681   */\n      0x20\n        /* \"#utility.yul\":3667:3676   */\n      dup3\n        /* \"#utility.yul\":3658:3665   */\n      dup5\n        /* \"#utility.yul\":3654:3677   */\n      sub\n        /* \"#utility.yul\":3650:3682   */\n      slt\n        /* \"#utility.yul\":3647:3766   */\n      iszero\n      tag_105\n      jumpi\n        /* \"#utility.yul\":3685:3764   */\n      tag_106\n      tag_26\n      jump\t// in\n    tag_106:\n        /* \"#utility.yul\":3647:3766   */\n    tag_105:\n        /* \"#utility.yul\":3805:3806   */\n      0x00\n        /* \"#utility.yul\":3830:3883   */\n      tag_107\n        /* \"#utility.yul\":3875:3882   */\n      dup5\n        /* \"#utility.yul\":3866:3872   */\n      dup3\n        /* \"#utility.yul\":3855:3864   */\n      dup6\n        /* \"#utility.yul\":3851:3873   */\n      add\n        /* \"#utility.yul\":3830:3883   */\n      tag_30\n      jump\t// in\n    tag_107:\n        /* \"#utility.yul\":3820:3883   */\n      swap2\n      pop\n        /* \"#utility.yul\":3776:3893   */\n      pop\n        /* \"#utility.yul\":3571:3900   */\n      swap3\n      swap2\n      pop\n      pop\n      jump\t// out\n        /* \"#utility.yul\":3906:4005   */\n    tag_41:\n        /* \"#utility.yul\":3958:3964   */\n      0x00\n        /* \"#utility.yul\":3992:3997   */\n      dup2\n        /* \"#utility.yul\":3986:3998   */\n      mload\n        /* \"#utility.yul\":3976:3998   */\n      swap1\n      pop\n        /* \"#utility.yul\":3906:4005   */\n      swap2\n      swap1\n      pop\n      jump\t// out\n        /* \"#utility.yul\":4011:4180   */\n    tag_42:\n        /* \"#utility.yul\":4095:4106   */\n      0x00\n        /* \"#utility.yul\":4129:4135   */\n      dup3\n        /* \"#utility.yul\":4124:4127   */\n      dup3\n        /* \"#utility.yul\":4117:4136   */\n      mstore\n        /* \"#utility.yul\":4169:4173   */\n      0x20\n        /* \"#utility.yul\":4164:4167   */\n      dup3\n        /* \"#utility.yul\":4160:4174   */\n      add\n        /* \"#utility.yul\":4145:4174   */\n      swap1\n      pop\n        /* \"#utility.yul\":4011:4180   */\n      swap3\n      swap2\n      pop\n      pop\n      jump\t// out\n        /* \"#utility.yul\":4186:4325   */\n    tag_43:\n        /* \"#utility.yul\":4275:4281   */\n      dup3\n        /* \"#utility.yul\":4270:4273   */\n      dup2\n        /* \"#utility.yul\":4265:4268   */\n      dup4\n        /* \"#utility.yul\":4259:4282   */\n      mcopy\n        /* \"#utility.yul\":4316:4317   */\n      0x00\n        /* \"#utility.yul\":4307:4313   */\n      dup4\n        /* \"#utility.yul\":4302:4305   */\n      dup4\n        /* \"#utility.yul\":4298:4314   */\n      add\n        /* \"#utility.yul\":4291:4318   */\n      mstore\n        /* \"#utility.yul\":4186:4325   */\n      pop\n      pop\n      pop\n      jump\t// out\n        /* \"#utility.yul\":4331:4708   */\n    tag_44:\n        /* \"#utility.yul\":4419:4422   */\n      0x00\n        /* \"#utility.yul\":4447:4486   */\n      tag_112\n        /* \"#utility.yul\":4480:4485   */\n      dup3\n        /* \"#utility.yul\":4447:4486   */\n      tag_41\n      jump\t// in\n    tag_112:\n        /* \"#utility.yul\":4502:4573   */\n      tag_113\n        /* \"#utility.yul\":4566:4572   */\n      dup2\n        /* \"#utility.yul\":4561:4564   */\n      dup6\n        /* \"#utility.yul\":4502:4573   */\n      tag_42\n      jump\t// in\n    tag_113:\n        /* \"#utility.yul\":4495:4573   */\n      swap4\n      pop\n        /* \"#utility.yul\":4582:4647   */\n      tag_114\n        /* \"#utility.yul\":4640:4646   */\n      dup2\n        /* \"#utility.yul\":4635:4638   */\n      dup6\n        /* \"#utility.yul\":4628:4632   */\n      0x20\n        /* \"#utility.yul\":4621:4626   */\n      dup7\n        /* \"#utility.yul\":4617:4633   */\n      add\n        /* \"#utility.yul\":4582:4647   */\n      tag_43\n      jump\t// in\n    tag_114:\n        /* \"#utility.yul\":4672:4701   */\n      tag_115\n        /* \"#utility.yul\":4694:4700   */\n      dup2\n        /* \"#utility.yul\":4672:4701   */\n      tag_33\n      jump\t// in\n    tag_115:\n        /* \"#utility.yul\":4667:4670   */\n      dup5\n        /* \"#utility.yul\":4663:4702   */\n      add\n        /* \"#utility.yul\":4656:4702   */\n      swap2\n      pop\n        /* \"#utility.yul\":4423:4708   */\n      pop\n        /* \"#utility.yul\":4331:4708   */\n      swap3\n      swap2\n      pop\n      pop\n      jump\t// out\n        /* \"#utility.yul\":4714:5027   */\n    tag_14:\n        /* \"#utility.yul\":4827:4831   */\n      0x00\n        /* \"#utility.yul\":4865:4867   */\n      0x20\n        /* \"#utility.yul\":4854:4863   */\n      dup3\n        /* \"#utility.yul\":4850:4868   */\n      add\n        /* \"#utility.yul\":4842:4868   */\n      swap1\n      pop\n        /* \"#utility.yul\":4914:4923   */\n      dup2\n        /* \"#utility.yul\":4908:4912   */\n      dup2\n        /* \"#utility.yul\":4904:4924   */\n      sub\n        /* \"#utility.yul\":4900:4901   */\n      0x00\n        /* \"#utility.yul\":4889:4898   */\n      dup4\n        /* \"#utility.yul\":4885:4902   */\n      add\n        /* \"#utility.yul\":4878:4925   */\n      mstore\n        /* \"#utility.yul\":4942:5020   */\n      tag_117\n        /* \"#utility.yul\":5015:5019   */\n      dup2\n        /* \"#utility.yul\":5006:5012   */\n      dup5\n        /* \"#utility.yul\":4942:5020   */\n      tag_44\n      jump\t// in\n    tag_117:\n        /* \"#utility.yul\":4934:5020   */\n      swap1\n      pop\n        /* \"#utility.yul\":4714:5027   */\n      swap3\n      swap2\n      pop\n      pop\n      jump\t// out\n        /* \"#utility.yul\":5033:5213   */\n    tag_45:\n        /* \"#utility.yul\":5081:5158   */\n      0x4e487b7100000000000000000000000000000000000000000000000000000000\n        /* \"#utility.yul\":5078:5079   */\n      0x00\n        /* \"#utility.yul\":5071:5159   */\n      mstore\n        /* \"#utility.yul\":5178:5182   */\n      0x22\n        /* \"#utility.yul\":5175:5176   */\n      0x04\n        /* \"#utility.yul\":5168:5183   */\n      mstore\n        /* \"#utility.yul\":5202:5206   */\n      0x24\n        /* \"#utility.yul\":5199:5200   */\n      0x00\n        /* \"#utility.yul\":5192:5207   */\n      revert\n        /* \"#utility.yul\":5219:5539   */\n    tag_20:\n        /* \"#utility.yul\":5263:5269   */\n      0x00\n        /* \"#utility.yul\":5300:5301   */\n      0x02\n        /* \"#utility.yul\":5294:5298   */\n      dup3\n        /* \"#utility.yul\":5290:5302   */\n      div\n        /* \"#utility.yul\":5280:5302   */\n      swap1\n      pop\n        /* \"#utility.yul\":5347:5348   */\n      0x01\n        /* \"#utility.yul\":5341:5345   */\n      dup3\n        /* \"#utility.yul\":5337:5349   */\n      and\n        /* \"#utility.yul\":5368:5386   */\n      dup1\n        /* \"#utility.yul\":5358:5439   */\n      tag_120\n      jumpi\n        /* \"#utility.yul\":5424:5428   */\n      0x7f\n        /* \"#utility.yul\":5416:5422   */\n      dup3\n        /* \"#utility.yul\":5412:5429   */\n      and\n        /* \"#utility.yul\":5402:5429   */\n      swap2\n      pop\n        /* \"#utility.yul\":5358:5439   */\n    tag_120:\n        /* \"#utility.yul\":5486:5488   */\n      0x20\n        /* \"#utility.yul\":5478:5484   */\n      dup3\n        /* \"#utility.yul\":5475:5489   */\n      lt\n        /* \"#utility.yul\":5455:5473   */\n      dup2\n        /* \"#utility.yul\":5452:5490   */\n      sub\n        /* \"#utility.yul\":5449:5533   */\n      tag_121\n      jumpi\n        /* \"#utility.yul\":5505:5523   */\n      tag_122\n      tag_45\n      jump\t// in\n    tag_122:\n        /* \"#utility.yul\":5449:5533   */\n    tag_121:\n        /* \"#utility.yul\":5270:5539   */\n      pop\n        /* \"#utility.yul\":5219:5539   */\n      swap2\n      swap1\n      pop\n      jump\t// out\n        /* \"#utility.yul\":5545:5686   */\n    tag_46:\n        /* \"#utility.yul\":5594:5598   */\n      0x00\n        /* \"#utility.yul\":5617:5620   */\n      dup2\n        /* \"#utility.yul\":5609:5620   */\n      swap1\n      pop\n        /* \"#utility.yul\":5640:5643   */\n      dup2\n        /* \"#utility.yul\":5637:5638   */\n      0x00\n        /* \"#utility.yul\":5630:5644   */\n      mstore\n        /* \"#utility.yul\":5674:5678   */\n      0x20\n        /* \"#utility.yul\":5671:5672   */\n      0x00\n        /* \"#utility.yul\":5661:5679   */\n      keccak256\n        /* \"#utility.yul\":5653:5679   */\n      swap1\n      pop\n        /* \"#utility.yul\":5545:5686   */\n      swap2\n      swap1\n      pop\n      jump\t// out\n        /* \"#utility.yul\":5692:5785   */\n    tag_47:\n        /* \"#utility.yul\":5729:5735   */\n      0x00\n        /* \"#utility.yul\":5776:5778   */\n      0x20\n        /* \"#utility.yul\":5771:5773   */\n      0x1f\n        /* \"#utility.yul\":5764:5769   */\n      dup4\n        /* \"#utility.yul\":5760:5774   */\n      add\n        /* \"#utility.yul\":5756:5779   */\n      div\n        /* \"#utility.yul\":5746:5779   */\n      swap1\n      pop\n        /* \"#utility.yul\":5692:5785   */\n      swap2\n      swap1\n      pop\n      jump\t// out\n        /* \"#utility.yul\":5791:5898   */\n    tag_48:\n        /* \"#utility.yul\":5835:5843   */\n      0x00\n        /* \"#utility.yul\":5885:5890   */\n      dup3\n        /* \"#utility.yul\":5879:5883   */\n      dup3\n        /* \"#utility.yul\":5875:5891   */\n      shl\n        /* \"#utility.yul\":5854:5891   */\n      swap1\n      pop\n        /* \"#utility.yul\":5791:5898   */\n      swap3\n      swap2\n      pop\n      pop\n      jump\t// out\n        /* \"#utility.yul\":5904:6297   */\n    tag_49:\n        /* \"#utility.yul\":5973:5979   */\n      0x00\n        /* \"#utility.yul\":6023:6024   */\n      0x08\n        /* \"#utility.yul\":6011:6021   */\n      dup4\n        /* \"#utility.yul\":6007:6025   */\n      mul\n        /* \"#utility.yul\":6046:6143   */\n      tag_127\n        /* \"#utility.yul\":6076:6142   */\n      0xffffffffffffffffffffffffffffffffffffffffffffffffffffffffffffffff\n        /* \"#utility.yul\":6065:6074   */\n      dup3\n        /* \"#utility.yul\":6046:6143   */\n      tag_48\n      jump\t// in\n    tag_127:\n        /* \"#utility.yul\":6164:6203   */\n      tag_128\n        /* \"#utility.yul\":6194:6202   */\n      dup7\n        /* \"#utility.yul\":6183:6192   */\n      dup4\n        /* \"#utility.yul\":6164:6203   */\n      tag_48\n      jump\t// in\n    tag_128:\n        /* \"#utility.yul\":6152:6203   */\n      swap6\n      pop\n        /* \"#utility.yul\":6236:6240   */\n      dup1\n        /* \"#utility.yul\":6232:6241   */\n      not\n        /* \"#utility.yul\":6225:6230   */\n      dup5\n        /* \"#utility.yul\":6221:6242   */\n      and\n        /* \"#utility.yul\":6212:6242   */\n      swap4\n      pop\n        /* \"#utility.yul\":6285:6289   */\n      dup1\n        /* \"#utility.yul\":6275:6283   */\n      dup7\n        /* \"#utility.yul\":6271:6290   */\n      and\n        /* \"#utility.yul\":6264:6269   */\n      dup5\n        /* \"#utility.yul\":6261:6291   */\n      or\n        /* \"#utility.yul\":6251:6291   */\n      swap3\n      pop\n        /* \"#utility.yul\":5980:6297   */\n      pop\n      pop\n        /* \"#utility.yul\":5904:6297   */\n      swap4\n      swap3\n      pop\n      pop\n      pop\n      jump\t// out\n        /* \"#utility.yul\":6303:6363   */\n    tag_50:\n        /* \"#utility.yul\":6331:6334   */\n      0x00\n        /* \"#utility.yul\":6352:6357   */\n      dup2\n        /* \"#utility.yul\":6345:6357   */\n      swap1\n      pop\n        /* \"#utility.yul\":6303:6363   */\n      swap2\n      swap1\n      pop\n      jump\t// out\n        /* \"#utility.yul\":6369:6511   */\n    tag_51:\n        /* \"#utility.yul\":6419:6428   */\n      0x00\n        /* \"#utility.yul\":6452:6505   */\n      tag_131\n        /* \"#utility.yul\":6470:6504   */\n      tag_132\n        /* \"#utility.yul\":6479:6503   */\n      tag_133\n        /* \"#utility.yul\":6497:6502   */\n      dup5\n        /* \"#utility.yul\":6479:6503   */\n      tag_28\n      jump\t// in\n    tag_133:\n        /* \"#utility.yul\":6470:6504   */\n      tag_50\n      jump\t// in\n    tag_132:\n        /* \"#utility.yul\":6452:6505   */\n      tag_28\n      jump\t// in\n    tag_131:\n        /* \"#utility.yul\":6439:6505   */\n      swap1\n      pop\n        /* \"#utility.yul\":6369:6511   */\n      swap2\n      swap1\n      pop\n      jump\t// out\n        /* \"#utility.yul\":6517:6592   */\n    tag_52:\n        /* \"#utility.yul\":6560:6563   */\n      0x00\n        /* \"#utility.yul\":6581:6586   */\n      dup2\n        /* \"#utility.yul\":6574:6586   */\n      swap1\n      pop\n        /* \"#utility.yul\":6517:6592   */\n      swap2\n      swap1\n      pop\n      jump\t// out\n        /* \"#utility.yul\":6598:6867   */\n    tag_53:\n        /* \"#utility.yul\":6708:6747   */\n      tag_136\n        /* \"#utility.yul\":6739:6746   */\n      dup4\n        /* \"#utility.yul\":6708:6747   */\n      tag_51\n      jump\t// in\n    tag_136:\n        /* \"#utility.yul\":6769:6860   */\n      tag_137\n        /* \"#utility.yul\":6818:6859   */\n      tag_138\n        /* \"#utility.yul\":6842:6858   */\n      dup3\n        /* \"#utility.yul\":6818:6859   */\n      tag_52\n      jump\t// in\n    tag_138:\n        /* \"#utility.yul\":6810:6816   */\n      dup5\n        /* \"#utility.yul\":6803:6807   */\n      dup5\n        /* \"#utility.yul\":6797:6808   */\n      sload\n        /* \"#utility.yul\":6769:6860   */\n      tag_49\n      jump\t// in\n    tag_137:\n        /* \"#utility.yul\":6763:6767   */\n      dup3\n        /* \"#utility.yul\":6756:6861   */\n      sstore\n        /* \"#utility.yul\":6674:6867   */\n      pop\n        /* \"#utility.yul\":6598:6867   */\n      pop\n      pop\n      pop\n      jump\t// out\n        /* \"#utility.yul\":6873:6946   */\n    tag_54:\n        /* \"#utility.yul\":6918:6921   */\n      0x00\n        /* \"#utility.yul\":6873:6946   */\n      swap1\n      jump\t// out\n        /* \"#utility.yul\":6952:7141   */\n    tag_55:\n        /* \"#utility.yul\":7029:7061   */\n      tag_141\n      tag_54\n      jump\t// in\n    tag_141:\n        /* \"#utility.yul\":7070:7135   */\n      tag_142\n        /* \"#utility.yul\":7128:7134   */\n      dup2\n        /* \"#utility.yul\":7120:7126   */\n      dup5\n        /* \"#utility.yul\":7114:7118   */\n      dup5\n        /* \"#utility.yul\":7070:7135   */\n      tag_53\n      jump\t// in\n    tag_142:\n        /* \"#utility.yul\":7005:7141   */\n      pop\n        /* \"#utility.yul\":6952:7141   */\n      pop\n      pop\n      jump\t// out\n        /* \"#utility.yul\":7147:7333   */\n    tag_56:\n        /* \"#utility.yul\":7207:7327   */\n    tag_144:\n        /* \"#utility.yul\":7224:7227   */\n      dup2\n        /* \"#utility.yul\":7217:7222   */\n      dup2\n        /* \"#utility.yul\":7214:7228   */\n      lt\n        /* \"#utility.yul\":7207:7327   */\n      iszero\n      tag_146\n      jumpi\n        /* \"#utility.yul\":7278:7317   */\n      tag_147\n        /* \"#utility.yul\":7315:7316   */\n      0x00\n        /* \"#utility.yul\":7308:7313   */\n      dup3\n        /* \"#utility.yul\":7278:7317   */\n      tag_55\n      jump\t// in\n    tag_147:\n        /* \"#utility.yul\":7251:7252   */\n      0x01\n        /* \"#utility.yul\":7244:7249   */\n      dup2\n        /* \"#utility.yul\":7240:7253   */\n      add\n        /* \"#utility.yul\":7231:7253   */\n      swap1\n      pop\n        /* \"#utility.yul\":7207:7327   */\n      jump(tag_144)\n    tag_146:\n        /* \"#utility.yul\":7147:7333   */\n      pop\n      pop\n      jump\t// out\n        /* \"#utility.yul\":7339:7882   */\n    tag_57:\n        /* \"#utility.yul\":7440:7442   */\n      0x1f\n        /* \"#utility.yul\":7435:7438   */\n      dup3\n        /* \"#utility.yul\":7432:7443   */\n      gt\n        /* \"#utility.yul\":7429:7875   */\n      iszero\n      tag_149\n      jumpi\n        /* \"#utility.yul\":7474:7512   */\n      tag_150\n        /* \"#utility.yul\":7506:7511   */\n      dup2\n        /* \"#utility.yul\":7474:7512   */\n      tag_46\n      jump\t// in\n    tag_150:\n        /* \"#utility.yul\":7558:7587   */\n      tag_151\n        /* \"#utility.yul\":7576:7586   */\n      dup5\n        /* \"#utility.yul\":7558:7587   */\n      tag_47\n      jump\t// in\n    tag_151:\n        /* \"#utility.yul\":7548:7556   */\n      dup2\n        /* \"#utility.yul\":7544:7588   */\n      add\n        /* \"#utility.yul\":7741:7743   */\n      0x20\n        /* \"#utility.yul\":7729:7739   */\n      dup6\n        /* \"#utility.yul\":7726:7744   */\n      lt\n        /* \"#utility.yul\":7723:7772   */\n      iszero\n      tag_152\n      jumpi\n        /* \"#utility.yul\":7762:7770   */\n      dup2\n        /* \"#utility.yul\":7747:7770   */\n      swap1\n      pop\n        /* \"#utility.yul\":7723:7772   */\n    tag_152:\n        /* \"#utility.yul\":7785:7865   */\n      tag_153\n        /* \"#utility.yul\":7841:7863   */\n      tag_154\n        /* \"#utility.yul\":7859:7862   */\n      dup6\n        /* \"#utility.yul\":7841:7863   */\n      tag_47\n      jump\t// in\n    tag_154:\n        /* \"#utility.yul\":7831:7839   */\n      dup4\n        /* \"#utility.yul\":7827:7864   */\n      add\n        /* \"#utility.yul\":7814:7825   */\n      dup3\n        /* \"#utility.yul\":7785:7865   */\n      tag_56\n      jump\t// in\n    tag_153:\n        /* \"#utility.yul\":7444:7875   */\n      pop\n      pop\n        /* \"#utility.yul\":7429:7875   */\n    tag_149:\n        /* \"#utility.yul\":7339:7882   */\n      pop\n      pop\n      pop\n      jump\t// out\n        /* \"#utility.yul\":7888:8005   */\n    tag_58:\n        /* \"#utility.yul\":7942:7950   */\n      0x00\n        /* \"#utility.yul\":7992:7997   */\n      dup3\n        /* \"#utility.yul\":7986:7990   */\n      dup3\n        /* \"#utility.yul\":7982:7998   */\n      shr\n        /* \"#utility.yul\":7961:7998   */\n      swap1\n      pop\n        /* \"#utility.yul\":7888:8005   */\n      swap3\n      swap2\n      pop\n      pop\n      jump\t// out\n        /* \"#utility.yul\":8011:8180   */\n    tag_59:\n        /* \"#utility.yul\":8055:8061   */\n      0x00\n        /* \"#utility.yul\":8088:8139   */\n      tag_157\n        /* \"#utility.yul\":8136:8137   */\n      0x00\n        /* \"#utility.yul\":8132:8138   */\n      not\n        /* \"#utility.yul\":8124:8129   */\n      dup5\n        /* \"#utility.yul\":8121:8122   */\n      0x08\n        /* \"#utility.yul\":8117:8130   */\n      mul\n        /* \"#utility.yul\":8088:8139   */\n      tag_58\n      jump\t// in\n    tag_157:\n        /* \"#utility.yul\":8084:8140   */\n      not\n        /* \"#utility.yul\":8169:8173   */\n      dup1\n        /* \"#utility.yul\":8163:8167   */\n      dup4\n        /* \"#utility.yul\":8159:8174   */\n      and\n        /* \"#utility.yul\":8149:8174   */\n      swap2\n      pop\n        /* \"#utility.yul\":8062:8180   */\n      pop\n        /* \"#utility.yul\":8011:8180   */\n      swap3\n      swap2\n      pop\n      pop\n      jump\t// out\n        /* \"#utility.yul\":8185:8480   */\n    tag_60:\n        /* \"#utility.yul\":8261:8265   */\n      0x00\n        /* \"#utility.yul\":8407:8436   */\n      tag_159\n        /* \"#utility.yul\":8432:8435   */\n      dup4\n        /* \"#utility.yul\":8426:8430   */\n      dup4\n        /* \"#utility.yul\":8407:8436   */\n      tag_59\n      jump\t// in\n    tag_159:\n        /* \"#utility.yul\":8399:8436   */\n      swap2\n      pop\n        /* \"#utility.yul\":8469:8472   */\n      dup3\n        /* \"#utility.yul\":8466:8467   */\n      0x02\n        /* \"#utility.yul\":8462:8473   */\n      mul\n        /* \"#utility.yul\":8456:8460   */\n      dup3\n        /* \"#utility.yul\":8453:8474   */\n      or\n        /* \"#utility.yul\":8445:8474   */\n      swap1\n      pop\n        /* \"#utility.yul\":8185:8480   */\n      swap3\n      swap2\n      pop\n      pop\n      jump\t// out\n        /* \"#utility.yul\":8485:9880   */\n    tag_17:\n        /* \"#utility.yul\":8602:8639   */\n      tag_161\n        /* \"#utility.yul\":8635:8638   */\n      dup3\n        /* \"#utility.yul\":8602:8639   */\n      tag_41\n      jump\t// in\n    tag_161:\n        /* \"#utility.yul\":8704:8722   */\n      0xffffffffffffffff\n        /* \"#utility.yul\":8696:8702   */\n      dup2\n        /* \"#utility.yul\":8693:8723   */\n      gt\n        /* \"#utility.yul\":8690:8746   */\n      iszero\n      tag_162\n      jumpi\n        /* \"#utility.yul\":8726:8744   */\n      tag_163\n      tag_34\n      jump\t// in\n    tag_163:\n        /* \"#utility.yul\":8690:8746   */\n    tag_162:\n        /* \"#utility.yul\":8770:8808   */\n      tag_164\n        /* \"#utility.yul\":8802:8806   */\n      dup3\n        /* \"#utility.yul\":8796:8807   */\n      sload\n        /* \"#utility.yul\":8770:8808   */\n      tag_20\n      jump\t// in\n    tag_164:\n        /* \"#utility.yul\":8855:8922   */\n      tag_165\n        /* \"#utility.yul\":8915:8921   */\n      dup3\n        /* \"#utility.yul\":8907:8913   */\n      dup3\n        /* \"#utility.yul\":8901:8905   */\n      dup6\n        /* \"#utility.yul\":8855:8922   */\n      tag_57\n      jump\t// in\n    tag_165:\n        /* \"#utility.yul\":8949:8950   */\n      0x00\n        /* \"#utility.yul\":8973:8977   */\n      0x20\n        /* \"#utility.yul\":8960:8977   */\n      swap1\n      pop\n        /* \"#utility.yul\":9005:9007   */\n      0x1f\n        /* \"#utility.yul\":8997:9003   */\n      dup4\n        /* \"#utility.yul\":8994:9008   */\n      gt\n        /* \"#utility.yul\":9022:9023   */\n      0x01\n        /* \"#utility.yul\":9017:9635   */\n      dup2\n      eq\n      tag_167\n      jumpi\n        /* \"#utility.yul\":9679:9680   */\n      0x00\n        /* \"#utility.yul\":9696:9702   */\n      dup5\n        /* \"#utility.yul\":9693:9770   */\n      iszero\n      tag_168\n      jumpi\n        /* \"#utility.yul\":9745:9754   */\n      dup3\n        /* \"#utility.yul\":9740:9743   */\n      dup8\n        /* \"#utility.yul\":9736:9755   */\n      add\n        /* \"#utility.yul\":9730:9756   */\n      mload\n        /* \"#utility.yul\":9721:9756   */\n      swap1\n      pop\n        /* \"#utility.yul\":9693:9770   */\n    tag_168:\n        /* \"#utility.yul\":9796:9863   */\n      tag_169\n        /* \"#utility.yul\":9856:9862   */\n      dup6\n        /* \"#utility.yul\":9849:9854   */\n      dup3\n        /* \"#utility.yul\":9796:9863   */\n      tag_60\n      jump\t// in\n    tag_169:\n        /* \"#utility.yul\":9790:9794   */\n      dup7\n        /* \"#utility.yul\":9783:9864   */\n      sstore\n        /* \"#utility.yul\":9652:9874   */\n      pop\n        /* \"#utility.yul\":8987:9874   */\n      jump(tag_166)\n        /* \"#utility.yul\":9017:9635   */\n    tag_167:\n        /* \"#utility.yul\":9069:9073   */\n      0x1f\n        /* \"#utility.yul\":9065:9074   */\n      not\n        /* \"#utility.yul\":9057:9063   */\n      dup5\n        /* \"#utility.yul\":9053:9075   */\n      and\n        /* \"#utility.yul\":9103:9140   */\n      tag_170\n        /* \"#utility.yul\":9135:9139   */\n      dup7\n        /* \"#utility.yul\":9103:9140   */\n      tag_46\n      jump\t// in\n    tag_170:\n        /* \"#utility.yul\":9162:9163   */\n      0x00\n        /* \"#utility.yul\":9176:9384   */\n    tag_171:\n        /* \"#utility.yul\":9190:9197   */\n      dup3\n        /* \"#utility.yul\":9187:9188   */\n      dup2\n        /* \"#utility.yul\":9184:9198   */\n      lt\n        /* \"#utility.yul\":9176:9384   */\n      iszero\n      tag_173\n      jumpi\n        /* \"#utility.yul\":9269:9278   */\n      dup5\n        /* \"#utility.yul\":9264:9267   */\n      dup10\n        /* \"#utility.yul\":9260:9279   */\n      add\n        /* \"#utility.yul\":9254:9280   */\n      mload\n        /* \"#utility.yul\":9246:9252   */\n      dup3\n        /* \"#utility.yul\":9239:9281   */\n      sstore\n        /* \"#utility.yul\":9320:9321   */\n      0x01\n        /* \"#utility.yul\":9312:9318   */\n      dup3\n        /* \"#utility.yul\":9308:9322   */\n      add\n        /* \"#utility.yul\":9298:9322   */\n      swap2\n      pop\n        /* \"#utility.yul\":9367:9369   */\n      0x20\n        /* \"#utility.yul\":9356:9365   */\n      dup6\n        /* \"#utility.yul\":9352:9370   */\n      add\n        /* \"#utility.yul\":9339:9370   */\n      swap5\n      pop\n        /* \"#utility.yul\":9213:9217   */\n      0x20\n        /* \"#utility.yul\":9210:9211   */\n      dup2\n        /* \"#utility.yul\":9206:9218   */\n      add\n        /* \"#utility.yul\":9201:9218   */\n      swap1\n      pop\n        /* \"#utility.yul\":9176:9384   */\n      jump(tag_171)\n    tag_173:\n        /* \"#utility.yul\":9412:9418   */\n      dup7\n        /* \"#utility.yul\":9403:9410   */\n      dup4\n        /* \"#utility.yul\":9400:9419   */\n      lt\n        /* \"#utility.yul\":9397:9576   */\n      iszero\n      tag_174\n      jumpi\n        /* \"#utility.yul\":9470:9479   */\n      dup5\n        /* \"#utility.yul\":9465:9468   */\n      dup10\n        /* \"#utility.yul\":9461:9480   */\n      add\n        /* \"#utility.yul\":9455:9481   */\n      mload\n        /* \"#utility.yul\":9513:9561   */\n      tag_175\n        /* \"#utility.yul\":9555:9559   */\n      0x1f\n        /* \"#utility.yul\":9547:9553   */\n      dup10\n        /* \"#utility.yul\":9543:9560   */\n      and\n        /* \"#utility.yul\":9532:9541   */\n      dup3\n        /* \"#utility.yul\":9513:9561   */\n      tag_59\n      jump\t// in\n    tag_175:\n        /* \"#utility.yul\":9505:9511   */\n      dup4\n        /* \"#utility.yul\":9498:9562   */\n      sstore\n        /* \"#utility.yul\":9420:9576   */\n      pop\n        /* \"#utility.yul\":9397:9576   */\n    tag_174:\n        /* \"#utility.yul\":9622:9623   */\n      0x01\n        /* \"#utility.yul\":9618:9619   */\n      0x02\n        /* \"#utility.yul\":9610:9616   */\n      dup9\n        /* \"#utility.yul\":9606:9620   */\n      mul\n        /* \"#utility.yul\":9602:9624   */\n      add\n        /* \"#utility.yul\":9596:9600   */\n      dup9\n        /* \"#utility.yul\":9589:9625   */\n      sstore\n        /* \"#utility.yul\":9024:9635   */\n      pop\n      pop\n      pop\n        /* \"#utility.yul\":8987:9874   */\n    tag_166:\n      pop\n        /* \"#utility.yul\":8577:9880   */\n      pop\n      pop\n      pop\n        /* \"#utility.yul\":8485:9880   */\n      pop\n      pop\n      jump\t// out\n\n    auxdata: 0xa2646970667358221220305fc2ffbebf620936045bdbc1299c698b95b8db239694814336fc980e70277664736f6c634300081a0033\n}\n",
				"bytecode": {
					"linkReferences": {},
					"object": "6080604052348015600e575f80fd5b506106ca8061001c5f395ff3fe608060405234801561000f575f80fd5b5060043610610034575f3560e01c806364371977146100385780639507d39a14610054575b5f80fd5b610052600480360381019061004d91906102c6565b610084565b005b61006e60048036038101906100699190610320565b6100a6565b60405161007b91906103ab565b60405180910390f35b805f808481526020019081526020015f2090816100a191906105c5565b505050565b60605f808381526020019081526020015f2080546100c3906103f8565b80601f01602080910402602001604051908101604052809291908181526020018280546100ef906103f8565b801561013a5780601f106101115761010080835404028352916020019161013a565b820191905f5260205f20905b81548152906001019060200180831161011d57829003601f168201915b50505050509050919050565b5f604051905090565b5f80fd5b5f80fd5b5f819050919050565b61016981610157565b8114610173575f80fd5b50565b5f8135905061018481610160565b92915050565b5f80fd5b5f80fd5b5f601f19601f8301169050919050565b7f4e487b71000000000000000000000000000000000000000000000000000000005f52604160045260245ffd5b6101d882610192565b810181811067ffffffffffffffff821117156101f7576101f66101a2565b5b80604052505050565b5f610209610146565b905061021582826101cf565b919050565b5f67ffffffffffffffff821115610234576102336101a2565b5b61023d82610192565b9050602081019050919050565b828183375f83830152505050565b5f61026a6102658461021a565b610200565b9050828152602081018484840111156102865761028561018e565b5b61029184828561024a565b509392505050565b5f82601f8301126102ad576102ac61018a565b5b81356102bd848260208601610258565b91505092915050565b5f80604083850312156102dc576102db61014f565b5b5f6102e985828601610176565b925050602083013567ffffffffffffffff81111561030a57610309610153565b5b61031685828601610299565b9150509250929050565b5f602082840312156103355761033461014f565b5b5f61034284828501610176565b91505092915050565b5f81519050919050565b5f82825260208201905092915050565b8281835e5f83830152505050565b5f61037d8261034b565b6103878185610355565b9350610397818560208601610365565b6103a081610192565b840191505092915050565b5f6020820190508181035f8301526103c38184610373565b905092915050565b7f4e487b71000000000000000000000000000000000000000000000000000000005f52602260045260245ffd5b5f600282049050600182168061040f57607f821691505b602082108103610422576104216103cb565b5b50919050565b5f819050815f5260205f209050919050565b5f6020601f8301049050919050565b5f82821b905092915050565b5f600883026104847fffffffffffffffffffffffffffffffffffffffffffffffffffffffffffffffff82610449565b61048e8683610449565b95508019841693508086168417925050509392505050565b5f819050919050565b5f6104c96104c46104bf84610157565b6104a6565b610157565b9050919050565b5f819050919050565b6104e2836104af565b6104f66104ee826104d0565b848454610455565b825550505050565b5f90565b61050a6104fe565b6105158184846104d9565b505050565b5b818110156105385761052d5f82610502565b60018101905061051b565b5050565b601f82111561057d5761054e81610428565b6105578461043a565b81016020851015610566578190505b61057a6105728561043a565b83018261051a565b50505b505050565b5f82821c905092915050565b5f61059d5f1984600802610582565b1980831691505092915050565b5f6105b5838361058e565b9150826002028217905092915050565b6105ce8261034b565b67ffffffffffffffff8111156105e7576105e66101a2565b5b6105f182546103f8565b6105fc82828561053c565b5f60209050601f83116001811461062d575f841561061b578287015190505b61062585826105aa565b86555061068c565b601f19841661063b86610428565b5f5b828110156106625784890151825560018201915060208501945060208101905061063d565b8683101561067f578489015161067b601f89168261058e565b8355505b6001600288020188555050505b50505050505056fea2646970667358221220305fc2ffbebf620936045bdbc1299c698b95b8db239694814336fc980e70277664736f6c634300081a0033",
					"opcodes": "PUSH1 0x80 PUSH1 0x40 MSTORE CALLVALUE DUP1 ISZERO PUSH1 0xE JUMPI PUSH0 DUP1 REVERT JUMPDEST POP PUSH2 0x6CA DUP1 PUSH2 0x1C PUSH0 CODECOPY PUSH0 RETURN INVALID PUSH1 0x80 PUSH1 0x40 MSTORE CALLVALUE DUP1 ISZERO PUSH2 0xF JUMPI PUSH0 DUP1 REVERT JUMPDEST POP PUSH1 0x4 CALLDATASIZE LT PUSH2 0x34 JUMPI PUSH0 CALLDATALOAD PUSH1 0xE0 SHR DUP1 PUSH4 0x64371977 EQ PUSH2 0x38 JUMPI DUP1 PUSH4 0x9507D39A EQ PUSH2 0x54 JUMPI JUMPDEST PUSH0 DUP1 REVERT JUMPDEST PUSH2 0x52 PUSH1 0x4 DUP1 CALLDATASIZE SUB DUP2 ADD SWAP1 PUSH2 0x4D SWAP2 SWAP1 PUSH2 0x2C6 JUMP JUMPDEST PUSH2 0x84 JUMP JUMPDEST STOP JUMPDEST PUSH2 0x6E PUSH1 0x4 DUP1 CALLDATASIZE SUB DUP2 ADD SWAP1 PUSH2 0x69 SWAP2 SWAP1 PUSH2 0x320 JUMP JUMPDEST PUSH2 0xA6 JUMP JUMPDEST PUSH1 0x40 MLOAD PUSH2 0x7B SWAP2 SWAP1 PUSH2 0x3AB JUMP JUMPDEST PUSH1 0x40 MLOAD DUP1 SWAP2 SUB SWAP1 RETURN JUMPDEST DUP1 PUSH0 DUP1 DUP5 DUP2 MSTORE PUSH1 0x20 ADD SWAP1 DUP2 MSTORE PUSH1 0x20 ADD PUSH0 KECCAK256 SWAP1 DUP2 PUSH2 0xA1 SWAP2 SWAP1 PUSH2 0x5C5 JUMP JUMPDEST POP POP POP JUMP JUMPDEST PUSH1 0x60 PUSH0 DUP1 DUP4 DUP2 MSTORE PUSH1 0x20 ADD SWAP1 DUP2 MSTORE PUSH1 0x20 ADD PUSH0 KECCAK256 DUP1 SLOAD PUSH2 0xC3 SWAP1 PUSH2 0x3F8 JUMP JUMPDEST DUP1 PUSH1 0x1F ADD PUSH1 0x20 DUP1 SWAP2 DIV MUL PUSH1 0x20 ADD PUSH1 0x40 MLOAD SWAP1 DUP2 ADD PUSH1 0x40 MSTORE DUP1 SWAP3 SWAP2 SWAP1 DUP2 DUP2 MSTORE PUSH1 0x20 ADD DUP3 DUP1 SLOAD PUSH2 0xEF SWAP1 PUSH2 0x3F8 JUMP JUMPDEST DUP1 ISZERO PUSH2 0x13A JUMPI DUP1 PUSH1 0x1F LT PUSH2 0x111 JUMPI PUSH2 0x100 DUP1 DUP4 SLOAD DIV MUL DUP4 MSTORE SWAP2 PUSH1 0x20 ADD SWAP2 PUSH2 0x13A JUMP JUMPDEST DUP3 ADD SWAP2 SWAP1 PUSH0 MSTORE PUSH1 0x20 PUSH0 KECCAK256 SWAP1 JUMPDEST DUP2 SLOAD DUP2 MSTORE SWAP1 PUSH1 0x1 ADD SWAP1 PUSH1 0x20 ADD DUP1 DUP4 GT PUSH2 0x11D JUMPI DUP3 SWAP1 SUB PUSH1 0x1F AND DUP3 ADD SWAP2 JUMPDEST POP POP POP POP POP SWAP1 POP SWAP2 SWAP1 POP JUMP JUMPDEST PUSH0 PUSH1 0x40 MLOAD SWAP1 POP SWAP1 JUMP JUMPDEST PUSH0 DUP1 REVERT JUMPDEST PUSH0 DUP1 REVERT JUMPDEST PUSH0 DUP2 SWAP1 POP SWAP2 SWAP1 POP JUMP JUMPDEST PUSH2 0x169 DUP2 PUSH2 0x157 JUMP JUMPDEST DUP2 EQ PUSH2 0x173 JUMPI PUSH0 DUP1 REVERT JUMPDEST POP JUMP JUMPDEST PUSH0 DUP2 CALLDATALOAD SWAP1 POP PUSH2 0x184 DUP2 PUSH2 0x160 JUMP JUMPDEST SWAP3 SWAP2 POP POP JUMP JUMPDEST PUSH0 DUP1 REVERT JUMPDEST PUSH0 DUP1 REVERT JUMPDEST PUSH0 PUSH1 0x1F NOT PUSH1 0x1F DUP4 ADD AND SWAP1 POP SWAP2 SWAP1 POP JUMP JUMPDEST PUSH32 0x4E487B7100000000000000000000000000000000000000000000000000000000 PUSH0 MSTORE PUSH1 0x41 PUSH1 0x4 MSTORE PUSH1 0x24 PUSH0 REVERT JUMPDEST PUSH2 0x1D8 DUP3 PUSH2 0x192 JUMP JUMPDEST DUP2 ADD DUP2 DUP2 LT PUSH8 0xFFFFFFFFFFFFFFFF DUP3 GT OR ISZERO PUSH2 0x1F7 JUMPI PUSH2 0x1F6 PUSH2 0x1A2 JUMP JUMPDEST JUMPDEST DUP1 PUSH1 0x40 MSTORE POP POP POP JUMP JUMPDEST PUSH0 PUSH2 0x209 PUSH2 0x146 JUMP JUMPDEST SWAP1 POP PUSH2 0x215 DUP3 DUP3 PUSH2 0x1CF JUMP JUMPDEST SWAP2 SWAP1 POP JUMP JUMPDEST PUSH0 PUSH8 0xFFFFFFFFFFFFFFFF DUP3 GT ISZERO PUSH2 0x234 JUMPI PUSH2 0x233 PUSH2 0x1A2 JUMP JUMPDEST JUMPDEST PUSH2 0x23D DUP3 PUSH2 0x192 JUMP JUMPDEST SWAP1 POP PUSH1 0x20 DUP2 ADD SWAP1 POP SWAP2 SWAP1 POP JUMP JUMPDEST DUP3 DUP2 DUP4 CALLDATACOPY PUSH0 DUP4 DUP4 ADD MSTORE POP POP POP JUMP JUMPDEST PUSH0 PUSH2 0x26A PUSH2 0x265 DUP5 PUSH2 0x21A JUMP JUMPDEST PUSH2 0x200 JUMP JUMPDEST SWAP1 POP DUP3 DUP2 MSTORE PUSH1 0x20 DUP2 ADD DUP5 DUP5 DUP5 ADD GT ISZERO PUSH2 0x286 JUMPI PUSH2 0x285 PUSH2 0x18E JUMP JUMPDEST JUMPDEST PUSH2 0x291 DUP5 DUP3 DUP6 PUSH2 0x24A JUMP JUMPDEST POP SWAP4 SWAP3 POP POP POP JUMP JUMPDEST PUSH0 DUP3 PUSH1 0x1F DUP4 ADD SLT PUSH2 0x2AD JUMPI PUSH2 0x2AC PUSH2 0x18A JUMP JUMPDEST JUMPDEST DUP2 CALLDATALOAD PUSH2 0x2BD DUP5 DUP3 PUSH1 0x20 DUP7 ADD PUSH2 0x258 JUMP JUMPDEST SWAP2 POP POP SWAP3 SWAP2 POP POP JUMP JUMPDEST PUSH0 DUP1 PUSH1 0x40 DUP4 DUP6 SUB SLT ISZERO PUSH2 0x2DC JUMPI PUSH2 0x2DB PUSH2 0x14F JUMP JUMPDEST JUMPDEST PUSH0 PUSH2 0x2E9 DUP6 DUP3 DUP7 ADD PUSH2 0x176 JUMP JUMPDEST SWAP3 POP POP PUSH1 0x20 DUP4 ADD CALLDATALOAD PUSH8 0xFFFFFFFFFFFFFFFF DUP2 GT ISZERO PUSH2 0x30A JUMPI PUSH2 0x309 PUSH2 0x153 JUMP JUMPDEST JUMPDEST PUSH2 0x316 DUP6 DUP3 DUP7 ADD PUSH2 0x299 JUMP JUMPDEST SWAP2 POP POP SWAP3 POP SWAP3 SWAP1 POP JUMP JUMPDEST PUSH0 PUSH1 0x20 DUP3 DUP5 SUB SLT ISZERO PUSH2 0x335 JUMPI PUSH2 0x334 PUSH2 0x14F JUMP JUMPDEST JUMPDEST PUSH0 PUSH2 0x342 DUP5 DUP3 DUP6 ADD PUSH2 0x176 JUMP JUMPDEST SWAP2 POP POP SWAP3 SWAP2 POP POP JUMP JUMPDEST PUSH0 DUP2 MLOAD SWAP1 POP SWAP2 SWAP1 POP JUMP JUMPDEST PUSH0 DUP3 DUP3 MSTORE PUSH1 0x20 DUP3 ADD SWAP1 POP SWAP3 SWAP2 POP POP JUMP JUMPDEST DUP3 DUP2 DUP4 MCOPY PUSH0 DUP4 DUP4 ADD MSTORE POP POP POP JUMP JUMPDEST PUSH0 PUSH2 0x37D DUP3 PUSH2 0x34B JUMP JUMPDEST PUSH2 0x387 DUP2 DUP6 PUSH2 0x355 JUMP JUMPDEST SWAP4 POP PUSH2 0x397 DUP2 DUP6 PUSH1 0x20 DUP7 ADD PUSH2 0x365 JUMP JUMPDEST PUSH2 0x3A0 DUP2 PUSH2 0x192 JUMP JUMPDEST DUP5 ADD SWAP2 POP POP SWAP3 SWAP2 POP POP JUMP JUMPDEST PUSH0 PUSH1 0x20 DUP3 ADD SWAP1 POP DUP2 DUP2 SUB PUSH0 DUP4 ADD MSTORE PUSH2 0x3C3 DUP2 DUP5 PUSH2 0x373 JUMP JUMPDEST SWAP1 POP SWAP3 SWAP2 POP POP JUMP JUMPDEST PUSH32 0x4E487B7100000000000000000000000000000000000000000000000000000000 PUSH0 MSTORE PUSH1 0x22 PUSH1 0x4 MSTORE PUSH1 0x24 PUSH0 REVERT JUMPDEST PUSH0 PUSH1 0x2 DUP3 DIV SWAP1 POP PUSH1 0x1 DUP3 AND DUP1 PUSH2 0x40F JUMPI PUSH1 0x7F DUP3 AND SWAP2 POP JUMPDEST PUSH1 0x20 DUP3 LT DUP2 SUB PUSH2 0x422 JUMPI PUSH2 0x421 PUSH2 0x3CB JUMP JUMPDEST JUMPDEST POP SWAP2 SWAP1 POP JUMP JUMPDEST PUSH0 DUP2 SWAP1 POP DUP2 PUSH0 MSTORE PUSH1 0x20 PUSH0 KECCAK256 SWAP1 POP SWAP2 SWAP1 POP JUMP JUMPDEST PUSH0 PUSH1 0x20 PUSH1 0x1F DUP4 ADD DIV SWAP1 POP SWAP2 SWAP1 POP JUMP JUMPDEST PUSH0 DUP3 DUP3 SHL SWAP1 POP SWAP3 SWAP2 POP POP JUMP JUMPDEST PUSH0 PUSH1 0x8 DUP4 MUL PUSH2 0x484 PUSH32 0xFFFFFFFFFFFFFFFFFFFFFFFFFFFFFFFFFFFFFFFFFFFFFFFFFFFFFFFFFFFFFFFF DUP3 PUSH2 0x449 JUMP JUMPDEST PUSH2 0x48E DUP7 DUP4 PUSH2 0x449 JUMP JUMPDEST SWAP6 POP DUP1 NOT DUP5 AND SWAP4 POP DUP1 DUP7 AND DUP5 OR SWAP3 POP POP POP SWAP4 SWAP3 POP POP POP JUMP JUMPDEST PUSH0 DUP2 SWAP1 POP SWAP2 SWAP1 POP JUMP JUMPDEST PUSH0 PUSH2 0x4C9 PUSH2 0x4C4 PUSH2 0x4BF DUP5 PUSH2 0x157 JUMP JUMPDEST PUSH2 0x4A6 JUMP JUMPDEST PUSH2 0x157 JUMP JUMPDEST SWAP1 POP SWAP2 SWAP1 POP JUMP JUMPDEST PUSH0 DUP2 SWAP1 POP SWAP2 SWAP1 POP JUMP JUMPDEST PUSH2 0x4E2 DUP4 PUSH2 0x4AF JUMP JUMPDEST PUSH2 0x4F6 PUSH2 0x4EE DUP3 PUSH2 0x4D0 JUMP JUMPDEST DUP5 DUP5 SLOAD PUSH2 0x455 JUMP JUMPDEST DUP3 SSTORE POP POP POP POP JUMP JUMPDEST PUSH0 SWAP1 JUMP JUMPDEST PUSH2 0x50A PUSH2 0x4FE JUMP JUMPDEST PUSH2 0x515 DUP2 DUP5 DUP5 PUSH2 0x4D9 JUMP JUMPDEST POP POP POP JUMP JUMPDEST JUMPDEST DUP2 DUP2 LT ISZERO PUSH2 0x538 JUMPI PUSH2 0x52D PUSH0 DUP3 PUSH2 0x502 JUMP JUMPDEST PUSH1 0x1 DUP2 ADD SWAP1 POP PUSH2 0x51B JUMP JUMPDEST POP POP JUMP JUMPDEST PUSH1 0x1F DUP3 GT ISZERO PUSH2 0x57D JUMPI PUSH2 0x54E DUP2 PUSH2 0x428 JUMP JUMPDEST PUSH2 0x557 DUP5 PUSH2 0x43A JUMP JUMPDEST DUP2 ADD PUSH1 0x20 DUP6 LT ISZERO PUSH2 0x566 JUMPI DUP2 SWAP1 POP JUMPDEST PUSH2 0x57A PUSH2 0x572 DUP6 PUSH2 0x43A JUMP JUMPDEST DUP4 ADD DUP3 PUSH2 0x51A JUMP JUMPDEST POP POP JUMPDEST POP POP POP JUMP JUMPDEST PUSH0 DUP3 DUP3 SHR SWAP1 POP SWAP3 SWAP2 POP POP JUMP JUMPDEST PUSH0 PUSH2 0x59D PUSH0 NOT DUP5 PUSH1 0x8 MUL PUSH2 0x582 JUMP JUMPDEST NOT DUP1 DUP4 AND SWAP2 POP POP SWAP3 SWAP2 POP POP JUMP JUMPDEST PUSH0 PUSH2 0x5B5 DUP4 DUP4 PUSH2 0x58E JUMP JUMPDEST SWAP2 POP DUP3 PUSH1 0x2 MUL DUP3 OR SWAP1 POP SWAP3 SWAP2 POP POP JUMP JUMPDEST PUSH2 0x5CE DUP3 PUSH2 0x34B JUMP JUMPDEST PUSH8 0xFFFFFFFFFFFFFFFF DUP2 GT ISZERO PUSH2 0x5E7 JUMPI PUSH2 0x5E6 PUSH2 0x1A2 JUMP JUMPDEST JUMPDEST PUSH2 0x5F1 DUP3 SLOAD PUSH2 0x3F8 JUMP JUMPDEST PUSH2 0x5FC DUP3 DUP3 DUP6 PUSH2 0x53C JUMP JUMPDEST PUSH0 PUSH1 0x20 SWAP1 POP PUSH1 0x1F DUP4 GT PUSH1 0x1 DUP2 EQ PUSH2 0x62D JUMPI PUSH0 DUP5 ISZERO PUSH2 0x61B JUMPI DUP3 DUP8 ADD MLOAD SWAP1 POP JUMPDEST PUSH2 0x625 DUP6 DUP3 PUSH2 0x5AA JUMP JUMPDEST DUP7 SSTORE POP PUSH2 0x68C JUMP JUMPDEST PUSH1 0x1F NOT DUP5 AND PUSH2 0x63B DUP7 PUSH2 0x428 JUMP JUMPDEST PUSH0 JUMPDEST DUP3 DUP2 LT ISZERO PUSH2 0x662 JUMPI DUP5 DUP10 ADD MLOAD DUP3 SSTORE PUSH1 0x1 DUP3 ADD SWAP2 POP PUSH1 0x20 DUP6 ADD SWAP5 POP PUSH1 0x20 DUP2 ADD SWAP1 POP PUSH2 0x63D JUMP JUMPDEST DUP7 DUP4 LT ISZERO PUSH2 0x67F JUMPI DUP5 DUP10 ADD MLOAD PUSH2 0x67B PUSH1 0x1F DUP10 AND DUP3 PUSH2 0x58E JUMP JUMPDEST DUP4 SSTORE POP JUMPDEST PUSH1 0x1 PUSH1 0x2 DUP9 MUL ADD DUP9 SSTORE POP POP POP JUMPDEST POP POP POP POP POP POP JUMP INVALID LOG2 PUSH5 0x6970667358 0x22 SLT KECCAK256 ADDRESS PUSH0 0xC2 SELFDESTRUCT 0xBE 0xBF PUSH3 0x93604 JUMPDEST 0xDB 0xC1 0x29 SWAP13 PUSH10 0x8B95B8DB239694814336 0xFC SWAP9 0xE PUSH17 0x277664736F6C634300081A003300000000 "
				},
				"gasEstimates": {
					"creation": {
						"codeDepositCost": "347600",
						"executionCost": "384",
						"totalCost": "347984"
					},
					"external": {
						"get(uint256)": "infinite",
						"set(uint256,string)": "infinite"
					}
				},
				"methodIdentifiers": {
					"get(uint256)": "9507d39a",
					"set(uint256,string)": "64371977"
				}
			},
			"storageLayout": {
				"storage": [
					{
						"astId": 5,
						"contract": "contracts/SimpleStorage.sol:SimpleStorage",
						"label": "keyValues",
						"offset": 0,
						"slot": "0",
						"type": "t_mapping(t_uint256,t_string_storage)"
					}
				],
				"types": {
					"t_mapping(t_uint256,t_string_storage)": {
						"encoding": "mapping",
						"key": "t_uint256",
						"label": "mapping(uint256 => string)",
						"numberOfBytes": "32",
						"value": "t_string_storage"
					},
					"t_string_storage": {
						"encoding": "bytes",
						"label": "string",
						"numberOfBytes": "32"
					},
					"t_uint256": {
						"encoding": "inplace",
						"label": "uint256",
						"numberOfBytes": "32"
					}
				}
			},
			"userdoc": {
				"kind": "user",
				"methods": {},
				"version": 1
			}
		}
	}
}